:020000040800F2
:100000007006002089010008910100089301000892
:100010009501000897010008990100080000000000
:100020000000000000000000000000009B0100082C
:100030009D010008000000009F010008A1010008C8
:10004000A3010008A3010008A3010008A301000800
:10005000A3010008A3010008A3010008A3010008F0
:10006000A3010008A3010008A3010008A3010008E0
:10007000A3010008A3010008A3010008A3010008D0
:10008000A3010008A3010008A3010008A3010008C0
:10009000A3010008A3010008A3010008A3010008B0
:1000A000A3010008A3010008A3010008A3010008A0
:1000B000A3010008A301000800000000A30100083C
:1000C000A30100080000000000000000A3010008D8
:1000D00000000000A3010008A301000800000000C8
:1000E000A3010008A3010008A301000800F002F822
:1000F00000F03AF80AA090E8000C82448344AAF188
:100100000107DA4501D100F02FF8AFF2090EBAE885
:100110000F0013F0010F18BFFB1A43F0010318473B
:10012000800A0000A00A0000103A24BF78C878C1F5
:10013000FAD8520724BF30C830C144BF04680C60ED
:10014000704700000023002400250026103A28BF35
:1001500078C1FBD8520728BF30C148BF0B60704739
:100160001FB51FBD10B510BD00F031F81146FFF7E7
:10017000F7FF00F0C3FB00F04FF803B4FFF7F2FF06
:1001800003BC00F057F800000948804709480047C1
:10019000FEE7FEE7FEE7FEE7FEE7FEE7FEE7FEE737
:1001A000FEE7FEE704480549054A064B7047000094
:1001B00055060008ED0000087000002070060020C1
:1001C000700200207002002070477047704775462B
:1001D00000F02CF8AE4605006946534620F00700B3
:1001E000854618B020B5FFF7DDFFBDE820404FF091
:1001F00000064FF000074FF000084FF0000BAC4630
:10020000ACE8C009ACE8C009ACE8C009ACE8C0097A
:1002100021F007018D46704710B50446AFF300800A
:100220002046BDE81040FFF7A8BF00000048704717
:100230000800002001491820ABBEFEE7260002009E
:100240007047000080B582B0C020C1F60340019025
:1002500040F60040C4F2010001A900F003F802B02A
:1002600080BD00002DE9F041CA7802F00F0CD306E2
:1002700044BF8B784CEA030C09880B0621D0056833
:1002800000234FF001084FF00F0E002608E000BFDA
:10029000282A08BF47610136082E03F104030FD056
:1002A00008FA06F70F42F6D00EFA03F425EA040422
:1002B0000CFA03F5482A45EA0405E9D10761EAE7A3
:1002C0000560B1F5807F38BFBDE8F0814468002348
:1002D0004FF4807E4FF00F08002607E0282A08BF61
:1002E00047610136082E03F1040310D00EFA06F719
:1002F00007EA0105BD42F4D108FA03F5AC430CFA54
:1003000003F5482A44EA0504E8D10761E9E74460B7
:10031000BDE8F0818068084018BF012070470000E8
:1003200041617047016170471023002A08BF142300
:10033000C150704710B540F60044C4F20104204695
:100340008021FFF7EFFF20464021FFF7EBFF10BDB4
:10035000B0B540F60044C4F2010420468021FFF706
:10036000DFFF40F20005C2F20005286800F06CFAD9
:1003700020464021FFF7D4FF286800F065FAB0BDA1
:10038000B0B540F60044C4F2010420464021FFF716
:10039000C9FF40F20005C2F20005286800F054FAD7
:1003A00020468021FFF7BEFF286800F04DFAB0BD5F
:1003B000B0B50C460546FFF7CBFF284600F07CF8A9
:1003C000002000F009F800F0F9F910B9204600F01B
:1003D00033F8FFF7D5FFB0BD70B540F60044C4F266
:1003E0000104024620468021FFF79EFF204640215F
:1003F000FFF798FF40F20006C2F20006306800F0F6
:10040000BEFA0025C3F6E07500222B4600F0CAFABA
:1004100000F088FA00F018FA20464021FFF780FF2C
:10042000306800F0ACFA00222B4600F0BBFA00F076
:1004300079FA00F009FA70BD2DE9F04140F6004567
:1004400040F2000400268046C4F201050027C2F2F3
:100450000004C3F6E07626E028468021FFF760FF1F
:1004600028464021FFF75EFF206800F088FA00224E
:10047000334600F097FA00F055FA00F0E5F9284607
:100480004021FFF74DFF206800F079FA0022334643
:1004900000F088FA00F046FA00F0D6F90137082F8C
:1004A00008BFBDE8F08108FA07F00006D4D5284659
:1004B0008021FFF737FFD3E72DE9F04140F60045F3
:1004C00040F2000400268046C4F201050027C2F273
:1004D0000004C3F6E07626E028468021FFF720FFDF
:1004E00028464021FFF71EFF206800F048FA00224E
:1004F000334600F057FA00F015FA00F0A5F9284647
:100500004021FFF70DFF206800F039FA0022334642
:1005100000F048FA00F006FA00F096F90137072FCC
:1005200008BFBDE8F08108FA07F00006D4D52846D8
:100530008021FFF7F7FED3E7002941F21C01C4F246
:1005400002010A680CBF22EA0000104308607047ED
:10055000002941F21801C4F202010A680CBF22EA24
:10056000000010430860704780B508200121FFF7A4
:10057000EFFF04200121FFF7EBFF01200121FFF72E
:10058000DBFF02200121FFF7D7FF80BD80B500F01F
:1005900001F880BD82B041F204000021C4F20200E3
:1005A0000191009150F8041C41F4803140F8041C82
:1005B00050F8041C01F400310091019901310191BE
:1005C000009919B90199B1F5A06FF1D150F8041C47
:1005D000890354BF0021012100910099012936D1DE
:1005E00042F20001C4F202010A6842F010020A60FD
:1005F0000A6822F007020A600A6842F002020A60F2
:100600000168016001680160016841F48061016076
:10061000016821F47C110160016841F4E811016076
:1006200050F8041C41F0807140F8041C50F8041C80
:100630008901FBD5016821F003010160016841F0E7
:1006400002010160016801F00C010829FAD102B031
:100650007047000080B541F20000C4F2020001685A
:10066000002241F0010101604168CFF6FF02114014
:10067000416001684FF6FF72CFF6F66211400160EB
:10068000016821F480210160416821F4FE0141608C
:100690004FF41F018160FFF779FF4EF60850CEF24C
:1006A00000004FF00061016080BD00000288002959
:1006B00042F0010308BF22F00103038070470000ED
:1006C000B0B584B048F69F4001AC4FF6FF7501907D
:1006D0004FF080402146029500F01AF8029540F252
:1006E00000454720C4F2000501902846214600F04D
:1006F0000FF84FF080400121FFF7D8FF2846012175
:10070000FFF7D4FF04B0B0BD808C70478184704780
:1007100040F6FF33B0F800C0C4F2000398420FDC8B
:10072000B0F1804F1ED040F20043C4F20003984263
:1007300018D040F60003C4F20003984212D016E02D
:1007400040F60043C4F2000398420BD043F200434A
:10075000C4F20103984205D042F60043C4F20103FB
:10076000984204D14B882CF0700243EA020C41F20B
:10077000004240F48063C4F20002934204D0CA886D
:100780002CF4407342EA030CA0F800C08A888285EA
:10079000A0F18042A2F596320B884FEAB222072AD6
:1007A000038507D8012303FA02F212F0E50F1CBFFC
:1007B000097A01860121818270470000F0B581B07D
:1007C00040F20007C2F20007386800F0D8F80024B1
:1007D000C3F6E0740022234600F0E4F800F0A2F82B
:1007E00000F032F840F60045C4F2010528464021E9
:1007F000FFF798FD28468021FFF78CFD064600286C
:10080000386818BF012600F0BAF80022234600F02D
:10081000C9F800F087F800F017F828464021FFF7E4
:100820007FFD304601B0F0BD10B504464FF080406A
:100830000021FFF76BFF64004FF08040FFF764FF7B
:100840008442F9D810BD0000B0B540F20045C4F2B2
:100850000005044628460021FFF758FF2846FFF709
:1008600053FFA042FAD3B0BD80B540F26801C2F296
:1008700000010870332000F029F8322000F026F83B
:100880003220FFF7D1FF282000F020F83220FFF7B8
:10089000CBFF012000F01AF83220FFF7C5FF062039
:1008A00000F014F83220FFF7BFFF0C2000F00EF824
:1008B0003220FFF7B9FF022000F008F83220FFF7DE
:1008C000B3FF802000F002F880BD000080B540F248
:1008D0006801C2F200010978024608461146FFF796
:1008E00067FD80BD80B540F26801C2F20001097861
:1008F000024608461146FFF75BFD80BDFFF734FE58
:10090000FFF7DEFEFFF79EFCFFF714FD2720FFF741
:10091000ABFF00BF6120FFF7E5FF4FF4FA70FFF770
:1009200083FFF7E74FEA1153A3F58063D3F11E036A
:10093000A8BFD3F1200C08DB4FF0004242EAC122ED
:1009400052EA505232FA03F0704709420BD4102B8E
:10095000C4BF0020704703F5787CBCF1FF3F05D091
:100960004FF0FF3070474FF00000704770B500F057
:10097000C3F800BF4992248000207047F0E7B0FA26
:1009800080F310FA03F10AD0C3F11D0303F580636D
:100990004FEA03524FEA415002EBD12170474FF02A
:1009A0000000704770B5DFF848C11CEA111E1EBF79
:1009B0001CEA13159EEA0C0F95EA0C0F00F06F80ED
:1009C00081EA03044EEAD47EAE4421EA4C1123EAC4
:1009D0004C1341F4801143F48013AEF17F7EA1FBF0
:1009E000024CA0FB0365361955EB0C05A1FB034C2B
:1009F0004CF10003A0FB021C16EB0C06654153F101
:100A00000003094218BF46F0010613F4007F0BD122
:100A10004FEA03314FEA053041EA155140EA1650DA
:100A200034036FF003020AE04FEAC3214FEAC52006
:100A300041EA555140EA5650F4026FF0020202EBCF
:100A40002E4201EB025585EACE710AD05FEA440CD2
:100A500018BF24F0004450F1000041F1000120EAE9
:100A6000D47040F2FE7C624500D270BDA84214BF33
:100A70004FF080444FF04044002E08BF0024BEF1E8
:100A8000806FA8BFA1F1C041BDE8704080F28280B4
:100A900001F1C04101F000414FF0000070470CEA45
:100AA00013159EEA0C0F18BF95EA0C0F06D081EAC9
:100AB000030E4FF000000EF0004170BD00F01CF876
:100AC0008900013E00F007B800F009B84FEA430C76
:100AD0005FEA5C5C08D081EA030100F05BB84FEA92
:100AE000410C5FEA5C5CF6D102494FF000007047B0
:100AF0000000FF070000F87F0EF1020E2EF0030E3B
:100B00005EF8046B364205D4012A43EB030515F564
:100B1000001F12D8012841EB010C1CF5001F0CD856
:100B20000ED14FEAD17C0CEB4C0C0CF1020C15F5FC
:100B3000001F08BF4CEBD37C04E04FF0080C01E031
:100B40004FEAD37C0CEB4C0526FA05F606F00706B7
:100B5000B6F1040C06D20EEB860CBDE870404CF0EA
:100B6000010C6047DFE80CF0090B02024FF0004176
:100B7000A1F500214FF0000070BD19461046012874
:100B800051EB010418BFD4F5001484BF002001F01C
:100B9000004170BD0808A0F500114FEA310170470F
:100BA000C00B000800000020080000002801000819
:100BB000C80B000808000020680600004401000877
:080BC0000A0000000000000023
:04000005080000ED02
:00000001FF
