:020000040800F2
:10000000680600206D0100087501000877010008EE
:10001000790100087B0100087D0100080000000054
:100020000000000000000000000000007F01000848
:10003000810100080000000083010008850100081C
:100040008701000887010008870100088701000870
:100050008701000887010008870100088701000860
:100060008701000887010008870100088701000850
:100070008701000887010008870100088701000840
:100080008701000887010008870100088701000830
:100090008701000887010008870100088701000820
:1000A0008701000887010008870100088701000810
:1000B0008701000887010008000000008701000890
:1000C0008701000800000000000000008701000810
:1000D0000000000087010008870100080000000000
:1000E00087010008870100088701000800F002F876
:1000F00000F02CF80AA090E8000C82448344AAF196
:100100000107DA4501D100F021F8AFF2090EBAE893
:100110000F0013F0010F18BFFB1A43F0010318473B
:100120003C0600004C0600000023002400250026A9
:10013000103A28BF78C1FBD8520728BF30C148BF4A
:100140000B6070471FB51FBD10B510BD00F031F832
:100150001146FFF7F7FF00F0DFFA00F04FF803B4A5
:10016000FFF7F2FF03BC00F057F800000948804792
:1001700009480047FEE7FEE7FEE7FEE7FEE7FEE789
:10018000FEE7FEE7FEE7FEE704480549054A064BA1
:100190007047000051040008ED00000868000020CE
:1001A000680600206802002068020020704770473F
:1001B0007047754600F02CF8AE4605006946534678
:1001C00020F00700854618B020B5FFF7DDFFBDE839
:1001D00020404FF000064FF000074FF000084FF0AE
:1001E000000BAC46ACE8C009ACE8C009ACE8C009FB
:1001F000ACE8C00921F007018D46704710B50446F0
:10020000AFF300802046BDE81040FFF7A8BF000014
:10021000004870470000002001491820ABBEFEE7EF
:100220002600020070470000B0B582B0012040F601
:100230000004C1F20300C4F2010401AD01902046A4
:10024000294600F015F80220C0F203400190204634
:10025000294600F00DF842F20000C1F203000190BF
:1002600004F50060294600F003F802B0B0BD0000BC
:100270002DE9F041CA7802F00F0CD30644BF8B7809
:100280004CEA030C09880B0621D0056800234FF0C7
:1002900001084FF00F0E002608E000BF282A08BF13
:1002A00047610136082E03F104030FD008FA06F760
:1002B0000F42F6D00EFA03F425EA04040CFA03F513
:1002C000482A45EA0405E9D10761EAE70560B1F586
:1002D000807F38BFBDE8F081446800234FF4807E02
:1002E0004FF00F08002607E0282A08BF47610136B3
:1002F000082E03F1040310D00EFA06F707EA0105F1
:10030000BD42F4D108FA03F5AC430CFA03F5482AD0
:1003100044EA0504E8D10761E9E74460BDE8F081FB
:1003200041617047016170471023002A08BF142300
:10033000C1507047002941F21C01C4F202010A6851
:100340000CBF22EA0000104308607047002941F208
:100350001801C4F202010A680CBF22EA000010432F
:100360000860704780B501200121FFF7E3FF0220FC
:100370000121FFF7DFFF04200121FFF7E7FF102035
:100380000121FFF7E3FF80BD80B500F001F880BDDB
:1003900082B041F204000021C4F2020001910091F8
:1003A00050F8041C41F4803140F8041C50F8041C3F
:1003B00001F400310091019901310191009919B9BD
:1003C0000199B1F5A06FF1D150F8041C890354BF15
:1003D0000021012100910099012936D142F200014A
:1003E000C4F202010A6842F010020A600A6822F0B0
:1003F00007020A600A6842F002020A6001680160AE
:1004000001680160016841F480610160016821F4C4
:100410007C110160016841F4E811016050F8041C8E
:1004200041F0807140F8041C50F8041C8901FBD590
:10043000016821F003010160016841F002010160DF
:10044000016801F00C010829FAD102B070470000E0
:1004500080B541F20000C4F202000168002241F0C0
:10046000010101604168CFF6FF021140416001685F
:100470004FF6FF72CFF6F66211400160016821F479
:1004800080210160416821F4FE0141604FF41F01A9
:100490008160FFF779FF4EF60850CEF200004FF072
:1004A0000061016080BD00000288002942F0010364
:1004B00008BF22F00103038070470000B0B584B08C
:1004C00048F69F400290012001AC01904FF080401F
:1004D000214600F01BF84FF080400121FFF7E4FFB8
:1004E000472040F2004502900020C4F20005019030
:1004F0002846214600F00AF828460121FFF7D4FFDC
:1005000004B0B0BD808C70478184704740F6FF33E3
:10051000B0F800C0C4F2000398420FDCB0F1804F85
:100520001ED040F20043C4F20003984218D040F6B7
:100530000003C4F20003984212D016E040F60043D4
:10054000C4F2000398420BD043F20043C4F201030B
:10055000984205D042F60043C4F20103984204D108
:100560004B882CF0700243EA020C41F2004240F446
:100570008063C4F20002934204D0CA882CF4407312
:1005800042EA030CA0F800C08A888285A0F180426C
:10059000A2F596320B884FEAB222072A038507D8C4
:1005A000012303FA02F212F0E50F1CBF097A01865B
:1005B00001218182704700000022002320FA02F10D
:1005C00001F0010119440132082ACBB2F6D140F200
:1005D0006400C2F200000068012805D0022805D19D
:1005E00001F00100C0B2704701208843C0B27047DB
:1005F00080B540F26402C2F2000211604AF20021AA
:10060000C0F24A41B1FBF0F040F26001C2F20001D9
:10061000086040F60000C4F201000121FFF782FEED
:1006200080BD00002DE9F04381B040F6000507468B
:10063000C4F20105FFF7C0FF05F500698046484692
:100640004FF400510122FFF76FFE28460121FFF70A
:1006500067FE40F26006C2F20006306800F04AF819
:10066000002409E028460121FFF75AFE306800F017
:1006700041F80134082C08D027FA04F0C007F1D063
:1006800028460121FFF74EFEF0E740F26400C2F277
:100690000000006860B128460121B8F1000F02D0C7
:1006A000FFF740FE01E0FFF73BFE306800F022F864
:1006B00028460121FFF736FE306800F01BF8484657
:1006C0004FF400510022FFF72FFE01B0BDE8F08388
:1006D00010B504464FF080400021FFF715FF04EBF2
:1006E000C40084004FF08040FFF70CFF8442F9D82B
:1006F00010BD000010B504464FF080400021FFF708
:1007000003FF04EBC400C4004FF08040FFF7FAFE83
:100710008442F9D810BD0000FFF724FEFFF7CEFE9B
:10072000FFF782FD4FF4165000210025FFF760FF10
:1007300008A400BF605DFFF775FF4FF47A70FFF704
:10074000C7FF0135052DF5D10A20FFF76BFF002506
:10075000F0E700BF50484F4E470000006C0700080C
:0C076000000000206806000028010008CE
:04000005080000ED02
:00000001FF
